:020000040800F2
:10000000D006002031020008190600081106000879
:100010001506000819050008030900080000000083
:100020000000000000000000000000003D06000885
:100030001D050008000000001B0600082D07000831
:100040004B0200084B0200084B0200084B0200085C
:100050004B0200084B0200084B0200084B0200084C
:100060004B0200081F0500082F0500084B0200087E
:100070004B0200084B0200084B0200084B0200082C
:100080004B0200084B0200084B0200084B0200081C
:100090004B0200084B0200084B0200084B0200080C
:1000A0004B0200084B0200084B0200084B020008FC
:1000B0004B0200089D070008B50700084B02000826
:1000C0004B0200084B0200084B0200084B020008DC
:1000D0004B0200080D0800084B0200084B02000804
:1000E0004B0200084B0200084B0200084B020008BC
:1000F0004B0200084B0200084B0200084B020008AC
:100100004B0200084B0200084B0200084B0200089B
:100110004B0200084B0200084B0200084B0200088B
:100120004B0200084B0200084B0200084B0200087B
:100130004B0200084B0200084B0200084B0200086B
:100140004B0200084B0200084B0200084B0200085B
:100150004B0200084B0200084B0200084B0200084B
:100160004B0200084B0200084B0200084B0200083B
:100170004B0200084B0200084B0200084B0200082B
:100180004B0200084B02000800F002F800F040F8B3
:100190000AA090E8000C82448344AAF10107DA45E2
:1001A00001D100F035F8AFF2090EBAE80F0013F0F4
:1001B000010F18BFFB1A43F001031847000A0000A3
:1001C000200A0000103A24BF78C878C1FAD8520734
:1001D00024BF30C830C144BF04680C6070470000C1
:1001E0000023002400250026103A28BF78C1FBD840
:1001F000520728BF30C148BF0B6070471FB500F0E1
:10020000D7FC9DE8030000F081F81FBD10B510BDBC
:1002100000F000F91146FFF7F1FF00F087FC00F055
:100220001EF903B4FFF7F2FF03BC00F04FF9000022
:100230000948804709480047FEE7FEE7FEE7FEE77A
:10024000FEE7FEE7FEE7FEE7FEE7FEE704480549B6
:10025000054A064B70470000350700088901000871
:10026000D0000020D0060020D0020020D0020020C4
:1002700070B5064600F02EF8056806F10B0020F078
:100280000704B4429CBF002070BD2B466A68BAB117
:100290001068A04210D304F1080188423CBF5068A6
:1002A000586007D35168101941601168091B01603B
:1002B00058601460101D70BD13465268002AE7D1C3
:1002C0002146284600F00EF80028DED170BD7047A8
:1002D00070477047004870477800002070477047AB
:1002E0007047704738B504460A4600206946AFF3A8
:1002F0000080002808BF38BD02460099204600F063
:1003000067F8012038BD012000F07CB8F8B5AFF3E4
:100310000080054600200C46102000BF0646A819A4
:10032000A0420DD9324669460020AFF30080070095
:1003300008BF00F067F80098A04218BF0546C4192E
:10034000FFF7C8FF05600746F01D20F007004619BB
:10035000284600F00AF8B44208BFF8BDA21B314697
:100360003868BDE8F84000F033B800210160C0E90A
:10037000011070471020704770B50446051FFFF745
:10038000A9FF0068002C14BF446870BD002C18BF82
:10039000AC423CBF20466468F8D301680A18AA4200
:1003A00018BF456003D12A680546114401602868DA
:1003B0004119A1421CBF6C6070BD61686960216811
:1003C0000844286070BD000000487047700000209D
:1003D000034640688C46002818BF88423CBF03464D
:1003E0004068F8D318681844884207D00CF103001D
:1003F00020F00700001D411A521A0146081D0A602C
:10040000FFF7BABF10B500F039F8BDE8104000F0B2
:100410002FB870477546FFF7D7FFAE46050069460F
:10042000534620F00700854618B020B5FFF70EFFB1
:10043000BDE820404FF000064FF000074FF00008E5
:100440004FF0000B21F00701AC46ACE8C009ACE866
:10045000C009ACE8C009ACE8C0098D46704710B5CA
:100460000446AFF300802046BDE81040FFF7D9BE38
:10047000002801D000F02AB87047000010B501280C
:1004800005D0002103A000F027F8012010BD09A12C
:10049000F8E7000053494752544D454D3A204F75F7
:1004A00074206F662068656170206D656D6F72796C
:1004B000000000003A2048656170206D656D6F7224
:1004C0007920636F72727570746564000149182039
:1004D000ABBEFEE72600020070B505460C460A20BA
:1004E00000E06D1C00F011F835B128780028F8D133
:1004F00002E0641C00F009F814B120780028F8D15B
:10050000BDE870400A20AFF3008008B569468DF859
:1005100000000320ABBE08BD00BFFEE7704710B56A
:10052000082000F013F8082000F00AF810BD10B5FC
:10053000102000F00BF8102000F002F810BD0000B1
:100540000149086070470000143C0140014600204A
:10055000034A12680A400AB1012000E000207047F7
:10056000143C0140F0B50A4600210023002400BFDE
:100570003DE0012505FA01F3156805EA03049C42F4
:1005800034D105684F000326BE40B5430560157998
:100590004E00B5400668354305601579012D02D03F
:1005A0001579022D16D185684F000326BE40B5434C
:1005B000856055794E00B54086683543856045684D
:1005C00001268E40B5434560456896798E40B6B2A7
:1005D00035434560C5684F000326BE40B543C5603E
:1005E000D5794E00B540C6683543C560491C102911
:1005F000BFD3F0BD0246002013690B400BB10120B0
:1006000000E0002070470A048261704781617047F2
:1006100000BFFEE700BFFEE77047704729B1064AFA
:1006200012680243044B1A6004E0034A12688243D2
:10063000014B1A60704700003038024070470000DC
:100640000CB50020019000903448006840F48030E0
:100650003249086000BF3148006800F40030009063
:100660000198401C0190009818B90198B0F5A04F6E
:10067000F1D12A48006800F4003010B10120009048
:1006800001E0002000900098012846D12348403026
:10069000006840F0805021494031086020480068DF
:1006A00040F440401E4908601C48083000681B495F
:1006B000083108600846006840F4004008600846B9
:1006C000006840F4A05008601648091F0860081F21
:1006D000006840F08070091F086000BF0F48006884
:1006E00000F000700028F9D040F205700E49086053
:1006F0000A480830006820F0030008490831086003
:100700000846006840F00200086000BF0348083057
:10071000006800F00C000828F8D10CBD0038024039
:100720000070004019544007003C024000B500F042
:1007300061F800BD10B51548006840F47000134919
:1007400008601348006840F001001149086000206B
:100750000F49083108600E4800680E4908400C49EE
:1007600008600D48091D0860081F006820F48020FB
:10077000091F0860002006490C310860FFF760FF80
:100780004FF0006001498039086010BD88ED00E03D
:1007900000380240FFFFF6FE1030002410B50121A2
:1007A000034800F016F80121014800F00FF810BDD1
:1007B0000004004010B50121034800F00AF80121AF
:1007C000014800F003F810BD00080040CA4302824F
:1007D000704730B50246002000230024158A05EA40
:1007E0000103958905EA010413B10CB1012000E071
:1007F000002030BD0448006820B103480068401E56
:1008000001490860704700000800002010B540F260
:1008100025511F4800F046F8002838D01C4800F049
:100820006BF81C490880084600885B280AD11A49E1
:100830001A4A128821F8120018480088401C1749EB
:10084000088019E0134800885D2809D15D2112480D
:10085000124A128820F812100120114908800BE07A
:100860000C4801880C480D4A128820F812100B48D9
:100870000088401C09490880074800885B2806D08A
:1008800006480088032802D101200549088010BDD0
:1008900000100140000000200C0000200200002099
:1008A0000400002070B5024600240023002500202B
:1008B00040F66A16B14200D100BFC1F3421501F003
:1008C0001F03012606FA03F3012D02D19689334056
:1008D00006E0022D02D1168A334001E0968A3340A9
:1008E0000C12012606FA04F41688344013B10CB138
:1008F000012000E0002070BD01468888C0F3080098
:10090000704700BFFEE7000010B51820FFF7B0FCED
:1009100004460CB9002010BD0748A0600748E060FD
:1009200007482061074860610020206000212046C0
:10093000E26890472046EEE7E30A0008090B00084A
:100940008D0A0008B30A000870B50546FFF7DCFF02
:1009500004460CB9002070BD65602046FBE70146E7
:1009600042F228324A434FF0E0235A6100229A6152
:1009700001221A6100BF4FF0E022106900F001026D
:100980001AB100F48032002AF5D000224FF0E023A3
:100990001A619A61704700001CB501210C20FFF715
:1009A0003DFE4FF44040009001208DF804000320EC
:1009B0008DF8050000208DF806008DF807006946C7
:1009C0000548FFF7CFFD4FF480700090694603485B
:1009D000FFF7C8FD1CBD0000000C024000080240EB
:1009E00010B5044624B1012C08D0022C12D10BE022
:1009F0004FF480410848FFF7FDFD10BD4FF4004162
:100A00000548FFF7F7FDF8E74FF480710348FFF75B
:100A1000F1FDF2E7FF20F0E7000C02400008024081
:100A200070B504460D4625B1012D0FD0022D27D1FA
:100A300019E02CB14FF480411248FFF7E7FD04E0C4
:100A40004FF480410F48FFF7DEFD19E02CB14FF461
:100A500000410C48FFF7DAFD04E04FF4004109487B
:100A6000FFF7D1FD0CE02CB14FF480710648FFF781
:100A7000CDFD04E04FF480710348FFF7C4FD00BFD3
:100A800000BF70BD000C02400008024070B5044673
:100A90000D4616462846FFF7A3FF30700121A940F6
:100AA0002068884320603178A9402068084320608E
:100AB00070BD70B506460C4600250CE00121A9402A
:100AC0002068884320602846FFF78AFFA8402168F5
:100AD000084320606D1C7068A842EFDC206830601D
:100AE00070BD70B504460D46164629463046FFF7E0
:100AF00097FF0121A94020688843206006FA05F18C
:100B000020680843206070BD70B505460E4600247D
:100B100007E026FA04F101F001002146FFF780FF0B
:100B2000641C6868A042F4DC2E6070BD1CB5002017
:100B300001900090FFF730FF0320FFF705FF044608
:100B40004FF47A70FFF70BFF00251CE001222946C5
:100B50002046A368984701AA29462046236998475A
:100B60004FF47A70FFF7FBFE002229462046A36867
:100B7000984701AA29462046236998474FF47A707E
:100B8000FFF7EDFE6D1C032DE0DB00250CE0294690
:100B90002046E268904769462046626990474FF4D4
:100BA0007A70FFF7DCFE6D1C082DF0DB00BFFEE75E
:100BB0004FF04070E1EE100A70470000DC0B0008B7
:100BC000000000200C000000C4010008E80B000831
:100BD0000C000020C4060000E00100080000000036
:080BE00000000000000000000D
:0400000508000231BC
:00000001FF
